{"abi":[{"type":"constructor","inputs":[{"name":"_nftContract","type":"address","internalType":"address"},{"name":"_axiomV2QueryAddress","type":"address","internalType":"address"},{"name":"_callbackSourceChainId","type":"uint64","internalType":"uint64"},{"name":"_axiomCallbackQuerySchema","type":"bytes32","internalType":"bytes32"},{"name":"_defaultTaxRate","type":"uint256","internalType":"uint256"},{"name":"_defaultRewardRate","type":"uint256","internalType":"uint256"}],"stateMutability":"nonpayable"},{"type":"function","name":"allowance","inputs":[{"name":"owner","type":"address","internalType":"address"},{"name":"spender","type":"address","internalType":"address"}],"outputs":[{"name":"","type":"uint256","internalType":"uint256"}],"stateMutability":"view"},{"type":"function","name":"approve","inputs":[{"name":"spender","type":"address","internalType":"address"},{"name":"amount","type":"uint256","internalType":"uint256"}],"outputs":[{"name":"","type":"bool","internalType":"bool"}],"stateMutability":"nonpayable"},{"type":"function","name":"axiomV2Callback","inputs":[{"name":"sourceChainId","type":"uint64","internalType":"uint64"},{"name":"caller","type":"address","internalType":"address"},{"name":"querySchema","type":"bytes32","internalType":"bytes32"},{"name":"queryId","type":"uint256","internalType":"uint256"},{"name":"axiomResults","type":"bytes32[]","internalType":"bytes32[]"},{"name":"extraData","type":"bytes","internalType":"bytes"}],"outputs":[],"stateMutability":"nonpayable"},{"type":"function","name":"axiomV2OffchainCallback","inputs":[{"name":"sourceChainId","type":"uint64","internalType":"uint64"},{"name":"caller","type":"address","internalType":"address"},{"name":"querySchema","type":"bytes32","internalType":"bytes32"},{"name":"queryId","type":"uint256","internalType":"uint256"},{"name":"axiomResults","type":"bytes32[]","internalType":"bytes32[]"},{"name":"extraData","type":"bytes","internalType":"bytes"}],"outputs":[],"stateMutability":"nonpayable"},{"type":"function","name":"axiomV2QueryAddress","inputs":[],"outputs":[{"name":"","type":"address","internalType":"address"}],"stateMutability":"view"},{"type":"function","name":"balanceOf","inputs":[{"name":"account","type":"address","internalType":"address"}],"outputs":[{"name":"","type":"uint256","internalType":"uint256"}],"stateMutability":"view"},{"type":"function","name":"decimals","inputs":[],"outputs":[{"name":"","type":"uint8","internalType":"uint8"}],"stateMutability":"view"},{"type":"function","name":"decreaseAllowance","inputs":[{"name":"spender","type":"address","internalType":"address"},{"name":"subtractedValue","type":"uint256","internalType":"uint256"}],"outputs":[{"name":"","type":"bool","internalType":"bool"}],"stateMutability":"nonpayable"},{"type":"function","name":"didUserVote","inputs":[{"name":"user","type":"address","internalType":"address"},{"name":"tokenId","type":"uint256","internalType":"uint256"}],"outputs":[{"name":"","type":"bool","internalType":"bool"}],"stateMutability":"view"},{"type":"function","name":"didVote","inputs":[{"name":"","type":"bytes32","internalType":"bytes32"}],"outputs":[{"name":"","type":"bool","internalType":"bool"}],"stateMutability":"view"},{"type":"function","name":"governanceNft","inputs":[],"outputs":[{"name":"","type":"address","internalType":"contract GovernanceNFT"}],"stateMutability":"view"},{"type":"function","name":"increaseAllowance","inputs":[{"name":"spender","type":"address","internalType":"address"},{"name":"addedValue","type":"uint256","internalType":"uint256"}],"outputs":[{"name":"","type":"bool","internalType":"bool"}],"stateMutability":"nonpayable"},{"type":"function","name":"name","inputs":[],"outputs":[{"name":"","type":"string","internalType":"string"}],"stateMutability":"view"},{"type":"function","name":"rewardRate","inputs":[],"outputs":[{"name":"","type":"uint256","internalType":"uint256"}],"stateMutability":"view"},{"type":"function","name":"symbol","inputs":[],"outputs":[{"name":"","type":"string","internalType":"string"}],"stateMutability":"view"},{"type":"function","name":"taxRate","inputs":[],"outputs":[{"name":"","type":"uint256","internalType":"uint256"}],"stateMutability":"view"},{"type":"function","name":"totalSupply","inputs":[],"outputs":[{"name":"","type":"uint256","internalType":"uint256"}],"stateMutability":"view"},{"type":"function","name":"totalVotes","inputs":[],"outputs":[{"name":"","type":"uint256","internalType":"uint256"}],"stateMutability":"view"},{"type":"function","name":"transfer","inputs":[{"name":"to","type":"address","internalType":"address"},{"name":"amount","type":"uint256","internalType":"uint256"}],"outputs":[{"name":"","type":"bool","internalType":"bool"}],"stateMutability":"nonpayable"},{"type":"function","name":"transferFrom","inputs":[{"name":"from","type":"address","internalType":"address"},{"name":"to","type":"address","internalType":"address"},{"name":"amount","type":"uint256","internalType":"uint256"}],"outputs":[{"name":"","type":"bool","internalType":"bool"}],"stateMutability":"nonpayable"},{"type":"event","name":"Approval","inputs":[{"name":"owner","type":"address","indexed":true,"internalType":"address"},{"name":"spender","type":"address","indexed":true,"internalType":"address"},{"name":"value","type":"uint256","indexed":false,"internalType":"uint256"}],"anonymous":false},{"type":"event","name":"AxiomV2Call","inputs":[{"name":"sourceChainId","type":"uint64","indexed":true,"internalType":"uint64"},{"name":"caller","type":"address","indexed":false,"internalType":"address"},{"name":"querySchema","type":"bytes32","indexed":true,"internalType":"bytes32"},{"name":"queryId","type":"uint256","indexed":true,"internalType":"uint256"}],"anonymous":false},{"type":"event","name":"AxiomV2OffchainCall","inputs":[{"name":"sourceChainId","type":"uint64","indexed":true,"internalType":"uint64"},{"name":"caller","type":"address","indexed":false,"internalType":"address"},{"name":"querySchema","type":"bytes32","indexed":true,"internalType":"bytes32"},{"name":"queryId","type":"uint256","indexed":true,"internalType":"uint256"}],"anonymous":false},{"type":"event","name":"ParametersUpdated","inputs":[{"name":"callerAddr","type":"address","indexed":true,"internalType":"address"},{"name":"tokenId","type":"uint256","indexed":true,"internalType":"uint256"},{"name":"queryId","type":"uint256","indexed":true,"internalType":"uint256"},{"name":"newTaxRate","type":"uint256","indexed":false,"internalType":"uint256"},{"name":"newRewardRate","type":"uint256","indexed":false,"internalType":"uint256"},{"name":"totalVotes","type":"uint256","indexed":false,"internalType":"uint256"}],"anonymous":false},{"type":"event","name":"Transfer","inputs":[{"name":"from","type":"address","indexed":true,"internalType":"address"},{"name":"to","type":"address","indexed":true,"internalType":"address"},{"name":"value","type":"uint256","indexed":false,"internalType":"uint256"}],"anonymous":false},{"type":"error","name":"AxiomV2QueryAddressIsZero","inputs":[]},{"type":"error","name":"CallerMustBeAxiomV2Query","inputs":[]}],"bytecode":{"object":"0x60e06040523480156200001157600080fd5b506040516200152238038062001522833981016040819052620000349162000138565b846040518060400160405280601881526020017f5573656c65737320476f7665726e616e636520546f6b656e0000000000000000815250604051806040016040528060038152602001621551d560ea1b815250816003908162000098919062000253565b506004620000a7828262000253565b5050506001600160a01b038116620000d25760405163d86f565560e01b815260040160405180910390fd5b6001600160a01b039081166080526001600160401b039490941660c05260a092909252600555600655600980546001600160a01b0319169390911692909217909155506200031f565b80516001600160a01b03811681146200013357600080fd5b919050565b60008060008060008060c087890312156200015257600080fd5b6200015d876200011b565b95506200016d602088016200011b565b60408801519095506001600160401b03811681146200018b57600080fd5b80945050606087015192506080870151915060a087015190509295509295509295565b634e487b7160e01b600052604160045260246000fd5b600181811c90821680620001d957607f821691505b602082108103620001fa57634e487b7160e01b600052602260045260246000fd5b50919050565b601f8211156200024e57600081815260208120601f850160051c81016020861015620002295750805b601f850160051c820191505b818110156200024a5782815560010162000235565b5050505b505050565b81516001600160401b038111156200026f576200026f620001ae565b6200028781620002808454620001c4565b8462000200565b602080601f831160018114620002bf5760008415620002a65750858301515b600019600386901b1c1916600185901b1785556200024a565b600085815260208120601f198616915b82811015620002f057888601518255948401946001909101908401620002cf565b50858210156200030f5787850151600019600388901b60f8161c191681555b5050505050600190811b01905550565b60805160a05160c0516111c86200035a600039600050506000610a1a0152600081816101a90152818161044501526105a101526111c86000f3fe608060405234801561001057600080fd5b506004361061012c5760003560e01c8063771a3a1d116100ad578063a457c2d711610071578063a457c2d7146102d9578063a9059cbb146102ec578063dc5cd53c146102ff578063dd62ed3e14610312578063eb21949a1461032557600080fd5b8063771a3a1d146102415780637b0a47ee1461024a5780638193399c146102535780638712716b1461026857806395d89b41146102d157600080fd5b80632a75d3be116100f45780632a75d3be146101a4578063313ce567146101e357806339509351146101f25780635135dbc01461020557806370a082311461021857600080fd5b806306fdde0314610131578063095ea7b31461014f5780630d15fd771461017257806318160ddd1461018957806323b872dd14610191575b600080fd5b610139610348565b6040516101469190610e75565b60405180910390f35b61016261015d366004610edb565b6103da565b6040519015158152602001610146565b61017b60075481565b604051908152602001610146565b60025461017b565b61016261019f366004610f07565b6103f4565b6101cb7f000000000000000000000000000000000000000000000000000000000000000081565b6040516001600160a01b039091168152602001610146565b60405160128152602001610146565b610162610200366004610edb565b610418565b6009546101cb906001600160a01b031681565b61017b610226366004610f48565b6001600160a01b031660009081526020819052604090205490565b61017b60055481565b61017b60065481565b610266610261366004610fb5565b61043a565b005b610162610276366004610edb565b6040516bffffffffffffffffffffffff19606084901b16602082015260348101829052600090819060540160408051808303601f1901815291815281516020928301206000908152600890925290205460ff16949350505050565b6101396104f9565b6101626102e7366004610edb565b610508565b6101626102fa366004610edb565b610588565b61026661030d366004610fb5565b610596565b61017b610320366004611097565b61063b565b6101626103333660046110d0565b60086020526000908152604090205460ff1681565b606060038054610357906110e9565b80601f0160208091040260200160405190810160405280929190818152602001828054610383906110e9565b80156103d05780601f106103a5576101008083540402835291602001916103d0565b820191906000526020600020905b8154815290600101906020018083116103b357829003601f168201915b5050505050905090565b6000336103e8818585610666565b60019150505b92915050565b60003361040285828561078a565b61040d858585610804565b506001949350505050565b6000336103e881858561042b838361063b565b6104359190611139565b610666565b336001600160a01b037f00000000000000000000000000000000000000000000000000000000000000001614610483576040516312e71c9f60e11b815260040160405180910390fd5b6040516001600160a01b03881681528590879067ffffffffffffffff8b16907fd6d9923f6afa6ae6afc97c99da22b8ccadc9beafe897857b2434da0a402da98c9060200160405180910390a46104df60018989898987876109a8565b6104ef8888888888888888610a90565b5050505050505050565b606060048054610357906110e9565b60003381610516828661063b565b90508381101561057b5760405162461bcd60e51b815260206004820152602560248201527f45524332303a2064656372656173656420616c6c6f77616e63652062656c6f77604482015264207a65726f60d81b60648201526084015b60405180910390fd5b61040d8286868403610666565b6000336103e8818585610804565b336001600160a01b037f000000000000000000000000000000000000000000000000000000000000000016146105df576040516312e71c9f60e11b815260040160405180910390fd5b6040516001600160a01b03881681528590879067ffffffffffffffff8b16907fc6d3309bf887e48755c9a455e332b73641b6bf2fd018e3b608bf21676c4c0af59060200160405180910390a46104df60008989898987876109a8565b6001600160a01b03918216600090815260016020908152604080832093909416825291909152205490565b6001600160a01b0383166106c85760405162461bcd60e51b8152602060048201526024808201527f45524332303a20617070726f76652066726f6d20746865207a65726f206164646044820152637265737360e01b6064820152608401610572565b6001600160a01b0382166107295760405162461bcd60e51b815260206004820152602260248201527f45524332303a20617070726f766520746f20746865207a65726f206164647265604482015261737360f01b6064820152608401610572565b6001600160a01b0383811660008181526001602090815260408083209487168084529482529182902085905590518481527f8c5be1e5ebec7d5bd14f71427d1e84f3dd0314c0f7b2291e5b200ac8c7c3b925910160405180910390a3505050565b6000610796848461063b565b905060001981146107fe57818110156107f15760405162461bcd60e51b815260206004820152601d60248201527f45524332303a20696e73756666696369656e7420616c6c6f77616e63650000006044820152606401610572565b6107fe8484848403610666565b50505050565b6001600160a01b0383166108685760405162461bcd60e51b815260206004820152602560248201527f45524332303a207472616e736665722066726f6d20746865207a65726f206164604482015264647265737360d81b6064820152608401610572565b6001600160a01b0382166108ca5760405162461bcd60e51b815260206004820152602360248201527f45524332303a207472616e7366657220746f20746865207a65726f206164647260448201526265737360e81b6064820152608401610572565b6001600160a01b038316600090815260208190526040902054818110156109425760405162461bcd60e51b815260206004820152602660248201527f45524332303a207472616e7366657220616d6f756e7420657863656564732062604482015265616c616e636560d01b6064820152608401610572565b6001600160a01b03848116600081815260208181526040808320878703905593871680835291849020805487019055925185815290927fddf252ad1be2c89b69c2b068fc378daa952ba7f163c4a11628f55a4df523b3ef910160405180910390a36107fe565b468667ffffffffffffffff1614610a185760405162461bcd60e51b815260206004820152602e60248201527f4178696f6d56323a20736f75726365436861696e4964206d757374206265206360448201526d1d5c9c995b9d0818da185a5b925960921b6064820152608401610572565b7f00000000000000000000000000000000000000000000000000000000000000008414610a875760405162461bcd60e51b815260206004820152601e60248201527f4178696f6d56323a20717565727920736368656d61206d69736d6174636800006044820152606401610572565b50505050505050565b600084846000818110610aa557610aa561114c565b9050602002013560001c9050600085856001818110610ac657610ac661114c565b9050602002013560001c9050600086866002818110610ae757610ae761114c565b6009546040516331a9108f60e11b815260048101879052602092909202939093013593506000926001600160a01b03169150636352211e90602401602060405180830381865afa158015610b3f573d6000803e3d6000fd5b505050506040513d601f19601f82011682018060405250810190610b639190611162565b6040516bffffffffffffffffffffffff19606087901b1660208201526034810185905290915060009060540160408051601f1981840301815291815281516020928301206000818152600890935291205490915060ff1615610c2d5760405162461bcd60e51b815260206004820152603d60248201527f476f7665726e616e6365546f6b656e3a20636c61696d65644f776e657220616c60448201527f726561647920766f7465642077697468207468697320746f6b656e49640000006064820152608401610572565b8b6001600160a01b0316856001600160a01b031614610ca35760405162461bcd60e51b815260206004820152602c60248201527f476f7665726e616e6365546f6b656e3a20636c61696d65644f776e6572206d7560448201526b39ba1031329031b0b63632b960a11b6064820152608401610572565b816001600160a01b0316856001600160a01b031614610d205760405162461bcd60e51b815260206004820152603360248201527f476f7665726e616e6365546f6b656e3a20636c61696d65644f776e6572206d7560448201527239ba1031329031bab93932b73a1037bbb732b960691b6064820152608401610572565b82600103610d7a57600160056000828254610d3b9190611139565b92505081905550600160066000828254610d559190611139565b92505081905550600160076000828254610d6f9190611139565b90915550610df79050565b82600203610daf57600160056000828254610d95919061117f565b92505081905550600160066000828254610d55919061117f565b60405162461bcd60e51b815260206004820152601d60248201527f476f7665726e616e6365546f6b656e3a20696e76616c696420766f74650000006044820152606401610572565b600081815260086020908152604091829020805460ff19166001179055600554600654600754845192835292820152918201528a9085906001600160a01b038f16907f307727c989f3c87a872f36c0c665dec093dfee07d03e13be7d3d624637f436819060600160405180910390a450505050505050505050505050565b600060208083528351808285015260005b81811015610ea257858101830151858201604001528201610e86565b506000604082860101526040601f19601f8301168501019250505092915050565b6001600160a01b0381168114610ed857600080fd5b50565b60008060408385031215610eee57600080fd5b8235610ef981610ec3565b946020939093013593505050565b600080600060608486031215610f1c57600080fd5b8335610f2781610ec3565b92506020840135610f3781610ec3565b929592945050506040919091013590565b600060208284031215610f5a57600080fd5b8135610f6581610ec3565b9392505050565b60008083601f840112610f7e57600080fd5b50813567ffffffffffffffff811115610f9657600080fd5b602083019150836020828501011115610fae57600080fd5b9250929050565b60008060008060008060008060c0898b031215610fd157600080fd5b883567ffffffffffffffff8082168214610fea57600080fd5b90985060208a013590610ffc82610ec3565b90975060408a0135965060608a0135955060808a0135908082111561102057600080fd5b818b0191508b601f83011261103457600080fd5b81358181111561104357600080fd5b8c60208260051b850101111561105857600080fd5b6020830196508095505060a08b013591508082111561107657600080fd5b506110838b828c01610f6c565b999c989b5096995094979396929594505050565b600080604083850312156110aa57600080fd5b82356110b581610ec3565b915060208301356110c581610ec3565b809150509250929050565b6000602082840312156110e257600080fd5b5035919050565b600181811c908216806110fd57607f821691505b60208210810361111d57634e487b7160e01b600052602260045260246000fd5b50919050565b634e487b7160e01b600052601160045260246000fd5b808201808211156103ee576103ee611123565b634e487b7160e01b600052603260045260246000fd5b60006020828403121561117457600080fd5b8151610f6581610ec3565b818103818111156103ee576103ee61112356fea2646970667358221220e79e192b46af6d13bb0dcf52c3d4054873b76b1e2b7fdf765065d999e81925bf64736f6c63430008130033","linkReferences":{}},"methodIdentifiers":{"allowance(address,address)":"dd62ed3e","approve(address,uint256)":"095ea7b3","axiomV2Callback(uint64,address,bytes32,uint256,bytes32[],bytes)":"dc5cd53c","axiomV2OffchainCallback(uint64,address,bytes32,uint256,bytes32[],bytes)":"8193399c","axiomV2QueryAddress()":"2a75d3be","balanceOf(address)":"70a08231","decimals()":"313ce567","decreaseAllowance(address,uint256)":"a457c2d7","didUserVote(address,uint256)":"8712716b","didVote(bytes32)":"eb21949a","governanceNft()":"5135dbc0","increaseAllowance(address,uint256)":"39509351","name()":"06fdde03","rewardRate()":"7b0a47ee","symbol()":"95d89b41","taxRate()":"771a3a1d","totalSupply()":"18160ddd","totalVotes()":"0d15fd77","transfer(address,uint256)":"a9059cbb","transferFrom(address,address,uint256)":"23b872dd"},"id":56}