{"abi":[{"type":"constructor","inputs":[],"stateMutability":"nonpayable"},{"type":"function","name":"approve","inputs":[{"name":"to","type":"address","internalType":"address"},{"name":"tokenId","type":"uint256","internalType":"uint256"}],"outputs":[],"stateMutability":"nonpayable"},{"type":"function","name":"balanceOf","inputs":[{"name":"owner","type":"address","internalType":"address"}],"outputs":[{"name":"","type":"uint256","internalType":"uint256"}],"stateMutability":"view"},{"type":"function","name":"getApproved","inputs":[{"name":"tokenId","type":"uint256","internalType":"uint256"}],"outputs":[{"name":"","type":"address","internalType":"address"}],"stateMutability":"view"},{"type":"function","name":"isApprovedForAll","inputs":[{"name":"owner","type":"address","internalType":"address"},{"name":"operator","type":"address","internalType":"address"}],"outputs":[{"name":"","type":"bool","internalType":"bool"}],"stateMutability":"view"},{"type":"function","name":"mint","inputs":[],"outputs":[],"stateMutability":"nonpayable"},{"type":"function","name":"name","inputs":[],"outputs":[{"name":"","type":"string","internalType":"string"}],"stateMutability":"view"},{"type":"function","name":"ownerOf","inputs":[{"name":"tokenId","type":"uint256","internalType":"uint256"}],"outputs":[{"name":"","type":"address","internalType":"address"}],"stateMutability":"view"},{"type":"function","name":"safeTransferFrom","inputs":[{"name":"from","type":"address","internalType":"address"},{"name":"to","type":"address","internalType":"address"},{"name":"tokenId","type":"uint256","internalType":"uint256"}],"outputs":[],"stateMutability":"nonpayable"},{"type":"function","name":"safeTransferFrom","inputs":[{"name":"from","type":"address","internalType":"address"},{"name":"to","type":"address","internalType":"address"},{"name":"tokenId","type":"uint256","internalType":"uint256"},{"name":"data","type":"bytes","internalType":"bytes"}],"outputs":[],"stateMutability":"nonpayable"},{"type":"function","name":"setApprovalForAll","inputs":[{"name":"operator","type":"address","internalType":"address"},{"name":"approved","type":"bool","internalType":"bool"}],"outputs":[],"stateMutability":"nonpayable"},{"type":"function","name":"supportsInterface","inputs":[{"name":"interfaceId","type":"bytes4","internalType":"bytes4"}],"outputs":[{"name":"","type":"bool","internalType":"bool"}],"stateMutability":"view"},{"type":"function","name":"symbol","inputs":[],"outputs":[{"name":"","type":"string","internalType":"string"}],"stateMutability":"view"},{"type":"function","name":"tokenByIndex","inputs":[{"name":"index","type":"uint256","internalType":"uint256"}],"outputs":[{"name":"","type":"uint256","internalType":"uint256"}],"stateMutability":"view"},{"type":"function","name":"tokenOfOwnerByIndex","inputs":[{"name":"owner","type":"address","internalType":"address"},{"name":"index","type":"uint256","internalType":"uint256"}],"outputs":[{"name":"","type":"uint256","internalType":"uint256"}],"stateMutability":"view"},{"type":"function","name":"tokenURI","inputs":[{"name":"tokenId","type":"uint256","internalType":"uint256"}],"outputs":[{"name":"","type":"string","internalType":"string"}],"stateMutability":"view"},{"type":"function","name":"totalSupply","inputs":[],"outputs":[{"name":"","type":"uint256","internalType":"uint256"}],"stateMutability":"view"},{"type":"function","name":"transferFrom","inputs":[{"name":"from","type":"address","internalType":"address"},{"name":"to","type":"address","internalType":"address"},{"name":"tokenId","type":"uint256","internalType":"uint256"}],"outputs":[],"stateMutability":"nonpayable"},{"type":"event","name":"Approval","inputs":[{"name":"owner","type":"address","indexed":true,"internalType":"address"},{"name":"approved","type":"address","indexed":true,"internalType":"address"},{"name":"tokenId","type":"uint256","indexed":true,"internalType":"uint256"}],"anonymous":false},{"type":"event","name":"ApprovalForAll","inputs":[{"name":"owner","type":"address","indexed":true,"internalType":"address"},{"name":"operator","type":"address","indexed":true,"internalType":"address"},{"name":"approved","type":"bool","indexed":false,"internalType":"bool"}],"anonymous":false},{"type":"event","name":"Transfer","inputs":[{"name":"from","type":"address","indexed":true,"internalType":"address"},{"name":"to","type":"address","indexed":true,"internalType":"address"},{"name":"tokenId","type":"uint256","indexed":true,"internalType":"uint256"}],"anonymous":false}],"bytecode":{"object":"0x60806040523480156200001157600080fd5b506040518060400160405280600d81526020016c11dbdd995c9b985b98d9539195609a1b8152506040518060400160405280600381526020016223ab2760e91b815250816000908162000065919062000122565b50600162000074828262000122565b505050620001ee565b634e487b7160e01b600052604160045260246000fd5b600181811c90821680620000a857607f821691505b602082108103620000c957634e487b7160e01b600052602260045260246000fd5b50919050565b601f8211156200011d57600081815260208120601f850160051c81016020861015620000f85750805b601f850160051c820191505b81811015620001195782815560010162000104565b5050505b505050565b81516001600160401b038111156200013e576200013e6200007d565b62000156816200014f845462000093565b84620000cf565b602080601f8311600181146200018e5760008415620001755750858301515b600019600386901b1c1916600185901b17855562000119565b600085815260208120601f198616915b82811015620001bf578886015182559484019460019091019084016200019e565b5085821015620001de5787850151600019600388901b60f8161c191681555b5050505050600190811b01905550565b6117f080620001fe6000396000f3fe608060405234801561001057600080fd5b506004361061010b5760003560e01c806342842e0e116100a257806395d89b411161007157806395d89b4114610219578063a22cb46514610221578063b88d4fde14610234578063c87b56dd14610247578063e985e9c51461025a57600080fd5b806342842e0e146101cd5780634f6ccce7146101e05780636352211e146101f357806370a082311461020657600080fd5b80631249c58b116100de5780631249c58b1461018d57806318160ddd1461019557806323b872dd146101a75780632f745c59146101ba57600080fd5b806301ffc9a71461011057806306fdde0314610138578063081812fc1461014d578063095ea7b314610178575b600080fd5b61012361011e366004611316565b610296565b60405190151581526020015b60405180910390f35b6101406102c1565b60405161012f9190611383565b61016061015b366004611396565b610353565b6040516001600160a01b03909116815260200161012f565b61018b6101863660046113cb565b61037a565b005b61018b610494565b6008545b60405190815260200161012f565b61018b6101b53660046113f5565b610501565b6101996101c83660046113cb565b610532565b61018b6101db3660046113f5565b6105c8565b6101996101ee366004611396565b6105e3565b610160610201366004611396565b610676565b610199610214366004611431565b6106d6565b61014061075c565b61018b61022f36600461144c565b61076b565b61018b61024236600461149e565b61077a565b610140610255366004611396565b6107b2565b61012361026836600461157a565b6001600160a01b03918216600090815260056020908152604080832093909416825291909152205460ff1690565b60006001600160e01b0319821663780e9d6360e01b14806102bb57506102bb82610826565b92915050565b6060600080546102d0906115ad565b80601f01602080910402602001604051908101604052809291908181526020018280546102fc906115ad565b80156103495780601f1061031e57610100808354040283529160200191610349565b820191906000526020600020905b81548152906001019060200180831161032c57829003601f168201915b5050505050905090565b600061035e82610876565b506000908152600460205260409020546001600160a01b031690565b600061038582610676565b9050806001600160a01b0316836001600160a01b0316036103f75760405162461bcd60e51b815260206004820152602160248201527f4552433732313a20617070726f76616c20746f2063757272656e74206f776e656044820152603960f91b60648201526084015b60405180910390fd5b336001600160a01b038216148061041357506104138133610268565b6104855760405162461bcd60e51b815260206004820152603d60248201527f4552433732313a20617070726f76652063616c6c6572206973206e6f7420746f60448201527f6b656e206f776e6572206f7220617070726f76656420666f7220616c6c00000060648201526084016103ee565b61048f83836108d8565b505050565b6104ff33306001600160a01b03166318160ddd6040518163ffffffff1660e01b8152600401602060405180830381865afa1580156104d6573d6000803e3d6000fd5b505050506040513d601f19601f820116820180604052508101906104fa91906115e7565b610946565b565b61050b3382610adf565b6105275760405162461bcd60e51b81526004016103ee90611600565b61048f838383610b5e565b600061053d836106d6565b821061059f5760405162461bcd60e51b815260206004820152602b60248201527f455243373231456e756d657261626c653a206f776e657220696e646578206f7560448201526a74206f6620626f756e647360a81b60648201526084016103ee565b506001600160a01b03919091166000908152600660209081526040808320938352929052205490565b61048f8383836040518060200160405280600081525061077a565b60006105ee60085490565b82106106515760405162461bcd60e51b815260206004820152602c60248201527f455243373231456e756d657261626c653a20676c6f62616c20696e646578206f60448201526b7574206f6620626f756e647360a01b60648201526084016103ee565b600882815481106106645761066461164d565b90600052602060002001549050919050565b6000818152600260205260408120546001600160a01b0316806102bb5760405162461bcd60e51b8152602060048201526018602482015277115490cdcc8c4e881a5b9d985b1a59081d1bdad95b88125160421b60448201526064016103ee565b60006001600160a01b0382166107405760405162461bcd60e51b815260206004820152602960248201527f4552433732313a2061646472657373207a65726f206973206e6f7420612076616044820152683634b21037bbb732b960b91b60648201526084016103ee565b506001600160a01b031660009081526003602052604090205490565b6060600180546102d0906115ad565b610776338383610ccf565b5050565b6107843383610adf565b6107a05760405162461bcd60e51b81526004016103ee90611600565b6107ac84848484610d9d565b50505050565b60606107bd82610876565b60006107d460408051602081019091526000815290565b905060008151116107f4576040518060200160405280600081525061081f565b806107fe84610dd0565b60405160200161080f929190611663565b6040516020818303038152906040525b9392505050565b60006001600160e01b031982166380ac58cd60e01b148061085757506001600160e01b03198216635b5e139f60e01b145b806102bb57506301ffc9a760e01b6001600160e01b03198316146102bb565b6000818152600260205260409020546001600160a01b03166108d55760405162461bcd60e51b8152602060048201526018602482015277115490cdcc8c4e881a5b9d985b1a59081d1bdad95b88125160421b60448201526064016103ee565b50565b600081815260046020526040902080546001600160a01b0319166001600160a01b038416908117909155819061090d82610676565b6001600160a01b03167f8c5be1e5ebec7d5bd14f71427d1e84f3dd0314c0f7b2291e5b200ac8c7c3b92560405160405180910390a45050565b6001600160a01b03821661099c5760405162461bcd60e51b815260206004820181905260248201527f4552433732313a206d696e7420746f20746865207a65726f206164647265737360448201526064016103ee565b6000818152600260205260409020546001600160a01b031615610a015760405162461bcd60e51b815260206004820152601c60248201527f4552433732313a20746f6b656e20616c7265616479206d696e7465640000000060448201526064016103ee565b610a0f600083836001610e63565b6000818152600260205260409020546001600160a01b031615610a745760405162461bcd60e51b815260206004820152601c60248201527f4552433732313a20746f6b656e20616c7265616479206d696e7465640000000060448201526064016103ee565b6001600160a01b038216600081815260036020908152604080832080546001019055848352600290915280822080546001600160a01b0319168417905551839291907fddf252ad1be2c89b69c2b068fc378daa952ba7f163c4a11628f55a4df523b3ef908290a45050565b600080610aeb83610676565b9050806001600160a01b0316846001600160a01b03161480610b3257506001600160a01b0380821660009081526005602090815260408083209388168352929052205460ff165b80610b565750836001600160a01b0316610b4b84610353565b6001600160a01b0316145b949350505050565b826001600160a01b0316610b7182610676565b6001600160a01b031614610b975760405162461bcd60e51b81526004016103ee90611692565b6001600160a01b038216610bf95760405162461bcd60e51b8152602060048201526024808201527f4552433732313a207472616e7366657220746f20746865207a65726f206164646044820152637265737360e01b60648201526084016103ee565b610c068383836001610e63565b826001600160a01b0316610c1982610676565b6001600160a01b031614610c3f5760405162461bcd60e51b81526004016103ee90611692565b600081815260046020908152604080832080546001600160a01b03199081169091556001600160a01b0387811680865260038552838620805460001901905590871680865283862080546001019055868652600290945282852080549092168417909155905184937fddf252ad1be2c89b69c2b068fc378daa952ba7f163c4a11628f55a4df523b3ef91a4505050565b816001600160a01b0316836001600160a01b031603610d305760405162461bcd60e51b815260206004820152601960248201527f4552433732313a20617070726f766520746f2063616c6c65720000000000000060448201526064016103ee565b6001600160a01b03838116600081815260056020908152604080832094871680845294825291829020805460ff191686151590811790915591519182527f17307eab39ab6107e8899845ad3d59bd9653f200f220920489ca2b5937696c31910160405180910390a3505050565b610da8848484610b5e565b610db484848484610f97565b6107ac5760405162461bcd60e51b81526004016103ee906116d7565b60606000610ddd83611098565b600101905060008167ffffffffffffffff811115610dfd57610dfd611488565b6040519080825280601f01601f191660200182016040528015610e27576020820181803683370190505b5090508181016020015b600019016f181899199a1a9b1b9c1cb0b131b232b360811b600a86061a8153600a8504945084610e3157509392505050565b6001811115610ed25760405162461bcd60e51b815260206004820152603560248201527f455243373231456e756d657261626c653a20636f6e7365637574697665207472604482015274185b9cd9995c9cc81b9bdd081cdd5c1c1bdc9d1959605a1b60648201526084016103ee565b816001600160a01b038516610f2e57610f2981600880546000838152600960205260408120829055600182018355919091527ff3f7a9fe364faab93b216da50a3214154f22a0a2b415b23a84c8169e8b636ee30155565b610f51565b836001600160a01b0316856001600160a01b031614610f5157610f518582611170565b6001600160a01b038416610f6d57610f688161120d565b610f90565b846001600160a01b0316846001600160a01b031614610f9057610f9084826112bc565b5050505050565b60006001600160a01b0384163b1561108d57604051630a85bd0160e11b81526001600160a01b0385169063150b7a0290610fdb903390899088908890600401611729565b6020604051808303816000875af1925050508015611016575060408051601f3d908101601f1916820190925261101391810190611766565b60015b611073573d808015611044576040519150601f19603f3d011682016040523d82523d6000602084013e611049565b606091505b50805160000361106b5760405162461bcd60e51b81526004016103ee906116d7565b805181602001fd5b6001600160e01b031916630a85bd0160e11b149050610b56565b506001949350505050565b60008072184f03e93ff9f4daa797ed6e38ed64bf6a1f0160401b83106110d75772184f03e93ff9f4daa797ed6e38ed64bf6a1f0160401b830492506040015b6d04ee2d6d415b85acef81000000008310611103576d04ee2d6d415b85acef8100000000830492506020015b662386f26fc10000831061112157662386f26fc10000830492506010015b6305f5e1008310611139576305f5e100830492506008015b612710831061114d57612710830492506004015b6064831061115f576064830492506002015b600a83106102bb5760010192915050565b6000600161117d846106d6565b6111879190611783565b6000838152600760205260409020549091508082146111da576001600160a01b03841660009081526006602090815260408083208584528252808320548484528184208190558352600790915290208190555b5060009182526007602090815260408084208490556001600160a01b039094168352600681528383209183525290812055565b60085460009061121f90600190611783565b600083815260096020526040812054600880549394509092849081106112475761124761164d565b9060005260206000200154905080600883815481106112685761126861164d565b60009182526020808320909101929092558281526009909152604080822084905585825281205560088054806112a0576112a06117a4565b6001900381819060005260206000200160009055905550505050565b60006112c7836106d6565b6001600160a01b039093166000908152600660209081526040808320868452825280832085905593825260079052919091209190915550565b6001600160e01b0319811681146108d557600080fd5b60006020828403121561132857600080fd5b813561081f81611300565b60005b8381101561134e578181015183820152602001611336565b50506000910152565b6000815180845261136f816020860160208601611333565b601f01601f19169290920160200192915050565b60208152600061081f6020830184611357565b6000602082840312156113a857600080fd5b5035919050565b80356001600160a01b03811681146113c657600080fd5b919050565b600080604083850312156113de57600080fd5b6113e7836113af565b946020939093013593505050565b60008060006060848603121561140a57600080fd5b611413846113af565b9250611421602085016113af565b9150604084013590509250925092565b60006020828403121561144357600080fd5b61081f826113af565b6000806040838503121561145f57600080fd5b611468836113af565b91506020830135801515811461147d57600080fd5b809150509250929050565b634e487b7160e01b600052604160045260246000fd5b600080600080608085870312156114b457600080fd5b6114bd856113af565b93506114cb602086016113af565b925060408501359150606085013567ffffffffffffffff808211156114ef57600080fd5b818701915087601f83011261150357600080fd5b81358181111561151557611515611488565b604051601f8201601f19908116603f0116810190838211818310171561153d5761153d611488565b816040528281528a602084870101111561155657600080fd5b82602086016020830137600060208483010152809550505050505092959194509250565b6000806040838503121561158d57600080fd5b611596836113af565b91506115a4602084016113af565b90509250929050565b600181811c908216806115c157607f821691505b6020821081036115e157634e487b7160e01b600052602260045260246000fd5b50919050565b6000602082840312156115f957600080fd5b5051919050565b6020808252602d908201527f4552433732313a2063616c6c6572206973206e6f7420746f6b656e206f776e6560408201526c1c881bdc88185c1c1c9bdd9959609a1b606082015260800190565b634e487b7160e01b600052603260045260246000fd5b60008351611675818460208801611333565b835190830190611689818360208801611333565b01949350505050565b60208082526025908201527f4552433732313a207472616e736665722066726f6d20696e636f72726563742060408201526437bbb732b960d91b606082015260800190565b60208082526032908201527f4552433732313a207472616e7366657220746f206e6f6e20455243373231526560408201527131b2b4bb32b91034b6b83632b6b2b73a32b960711b606082015260800190565b6001600160a01b038581168252841660208201526040810183905260806060820181905260009061175c90830184611357565b9695505050505050565b60006020828403121561177857600080fd5b815161081f81611300565b818103818111156102bb57634e487b7160e01b600052601160045260246000fd5b634e487b7160e01b600052603160045260246000fdfea2646970667358221220aac0aacec79dc72b4ecac4f1eafcf4ce97a50b4fb436ef20dfd543ef1a69490d64736f6c63430008130033","linkReferences":{}},"methodIdentifiers":{"approve(address,uint256)":"095ea7b3","balanceOf(address)":"70a08231","getApproved(uint256)":"081812fc","isApprovedForAll(address,address)":"e985e9c5","mint()":"1249c58b","name()":"06fdde03","ownerOf(uint256)":"6352211e","safeTransferFrom(address,address,uint256)":"42842e0e","safeTransferFrom(address,address,uint256,bytes)":"b88d4fde","setApprovalForAll(address,bool)":"a22cb465","supportsInterface(bytes4)":"01ffc9a7","symbol()":"95d89b41","tokenByIndex(uint256)":"4f6ccce7","tokenOfOwnerByIndex(address,uint256)":"2f745c59","tokenURI(uint256)":"c87b56dd","totalSupply()":"18160ddd","transferFrom(address,address,uint256)":"23b872dd"},"id":55}